:020000040800F2
:1000000098080020AD0100088F3E0008CB3B000897
:100010008D3E000869230008A54600080000000086
:10002000000000000000000000000000933E0008F7
:10003000F323000800000000913E0008094000087A
:10004000C7010008C7010008C7010008C701000870
:10005000C7010008C7010008C7010008C701000860
:10006000C7010008C7010008C7010008C701000850
:10007000C7010008C7010008C7010008BD23000828
:10008000C7010008C7010008C7010008C701000830
:10009000C7010008C7010008C7010008C701000820
:1000A000C7010008C7010008C7010008C701000810
:1000B0006D400008C7010008C7010008C70100081B
:1000C000C7010008C7010008C7010008C7010008F0
:1000D000C701000899460008C7010008C7010008C9
:1000E000C7010008C7010008C701000800F002F8B6
:1000F00000F04DF80AA090E8000C82448344AAF175
:100100000107DA4501D100F042F8AFF2090EBAE872
:100110000F0013F0010F18BFFB1A43F0010318473B
:100120000468000024680000103A24BF78C878C131
:10013000FAD8520724BF30C830C144BF04680C60ED
:10014000704700000023002400250026103A28BF35
:1001500078C1FBD8520728BF30C148BF0B60704739
:10016000662906F0F781002070471FB500F044FFB4
:1001700004000020002105F0DBF9401C6060002035
:10018000002105F0BFF9E0601FBD10B510BD01F002
:10019000F9F91146FFF7E9FF05F008F801F04AFC0C
:1001A00003B4FFF7F2FF03BC01F0A2FC094880474B
:1001B00009480047FEE7FEE7FEE7FEE7FEE7FEE749
:1001C000FEE7FEE7FEE7FEE704480549054A064B61
:1001D000704700006B400008ED0000089802002006
:1001E0009808002098040020980400200FB41CB543
:1001F0000C0007AA009001D02044401E074B7B440E
:1002000069460190069800F0F4FB002C03D0694683
:10021000002000F001FC1CBC5DF814FB210800006C
:100220002DE9F0474FF0000A89460446C0F820A0A7
:100230002046E1688847002876D0252806D0D4E9F2
:1002400001219047206A401C2062F1E7E1682046C6
:1002500000258847C4F81CA006460027C4F818A04B
:100260002A2E09D0304604F024FE38B304EB870868
:10027000303EC8F8186019E059F8041B204604EB1A
:1002800087029161E1688847012F064618D1E0692D
:10029000002820DA25F020051DE0D8F8180000EB32
:1002A000800006EB40003038C8F818002046E168AE
:1002B0008847064604F0FDFD0028EED1012F0AD044
:1002C0002E2E08D12046E16888477F1C0646022F63
:1002D00045F02005C4DBA069002803DA404245F060
:1002E0000105A061E80701D025F01005B6B1A6F11F
:1002F0004100192802D8203645F400654A463146A7
:10030000204625604D46FFF72BFF58B1012806D047
:10031000ED1D25F0070000F1080989E704E005F16B
:10032000040985E730468AE7206ABDE8F0870000C7
:100330000FB400B58DB010A9099000910B904FF04B
:10034000FF300A9000200C9006487844069006483A
:1003500078446A4607900F9909A800F0FBFD0DB09C
:100360005DF814FB270C00003F0C00002DE9FF5F37
:100370001D464FF0FF3B91464FF000085F46D5E920
:100380000146A96901987F1C8847296A82468847E7
:100390000028F6D1BAF1FF3F0CD0002E24F4C0643F
:1003A00019DD600614D5BAF12B0F09D0BAF12D0F63
:1003B0000ED103E0584604B0BDE8F09F44F48064D9
:1003C000A96901987F1C8847761E8246002E02DDAF
:1003D000BAF1300F03D0B9F1000F26D032E0A9698D
:1003E000761E01987F1C44F400748847002E8246D4
:1003F00005DDBAF1780F06D0BAF1580F03D0B9F184
:10040000000F10D01EE0B9F1000F02D0B9F1100FAB
:1004100018D1A969761E01987F1C24F400748847BE
:100420008246102002E0082000E00A20814609E010
:10043000A96908FB0908761E01987F1C44F4007422
:1004400088478246002E05DD4946504600F0F1FA05
:100450000028EDDAE96901988847A00502D46FF019
:100460000100A8E7E00725D1600613D5600502D595
:10047000C8F1000000E0404629680A1D2A600968AA
:10048000220501D5087015E0220701D5088011E08A
:1004900008600FE02868011D29600068210502D569
:1004A00080F8008006E0210702D5A0F8008001E076
:1004B000C0F8008038467EE7401ECAB210F8011F1F
:1004C0008A4202D00029F9D10020704710B5431CA0
:1004D00002E010F8011B71B18107FAD14FF001322F
:1004E00002C88C1A8C4314EAC211F9D0C01A0A0649
:1004F00003D0C01E10BDC01A10BD0A0401D0801E5A
:1005000010BD0902FCD0401E10BD4FF0000200B526
:10051000134694469646203922BFA0E80C50A0E826
:100520000C50B1F12001BFF4F7AF090728BFA0E8D4
:100530000C5048BF0CC05DF804EB890028BF40F8A0
:10054000042B08BF704748BF20F8022B11F0804FE2
:1005500018BF00F8012B704710B5044610F0030FC8
:1005600008BF11F0030F40F015804FF0013E121F3D
:10057000C0F20E8051F8043BA3EB0E0C2CEA030CE6
:100580001CEACE1C08BF40F8043BF0D0A1F10401E6
:1005900002F10402521E08DB11F8013B002B00F8A7
:1005A000013BF7D1114600F005FD204610BD704714
:1005B0007047704710B500F023FD006810BD10B5FE
:1005C000044600F01DFD046010BD70472DE9FF4F8B
:1005D0000C461E464FF0FF378BB0D2E90001DDF824
:1005E00060800A908A46C1F30A5505B93D4600214C
:1005F00008464FF00000BAF1000F00F4400005DAA1
:1006000000EB80004FF4400101EA50004FEA90599E
:10061000B9F1010F00DDB9460A9850EA4A000ED040
:1006200044F61050A5F2FF3545432F14B8F1000FE2
:100630001ED07542291E1EDDC9F100021CE0B8F172
:10064000010F4FF0000001D0302103E0F24305E03C
:100650002154401CB042FBDB3046002200212154D3
:100660000B99C1F80880C1E900200FB0BDE8F08FF8
:10067000BD1B6D1CDEE74A4600DA694206A800F0A1
:100680000BFF06AB93E8070003AB83E80700504677
:100690000A9901F034FA8DE80700A0F500501F38E0
:1006A00000900398002D0ADD42F21F014A460844DB
:1006B000002303A90390684601F0E0FC09E0A0F5DF
:1006C00000504A461F38002303A90390684601F0F2
:1006D000FFFC8DE807000004000C03D04FF0FF3052
:1006E000410800E01046B8F1000F03D0002200924C
:1006F00015461EE0751E05D400F086FC30326255AA
:100700006D1EF9D5B3460122084302D000227F1C9A
:1007100004E02078302801D100227F1E002A0997AA
:1007200084D01DE0112D07DA00F06EFC30326255E6
:100730006D1C50EA0102F5D1084302D00098C8B1FF
:100740000EE00021681E05E0235C625C63542254C5
:10075000401E491C8142F7DBAB46A81B401E099096
:10076000002004F80B000B98099AC0F80880C0E933
:10077000002B7AE711264FF0000857E72DE9F04FDC
:1007800088460446D21D22F0070191B0D1E900014C
:10079000CDE90A0103F087FF02460B98C00F01D094
:1007A0002D2007E02068810701D52B2002E02021C1
:1007B00001EAC000032A099001D0072A05DB03469D
:1007C0004146204600F06EFC0BE12078800601D502
:1007D000E06900E00620B8F1650F814606D0B8F167
:1007E000660F18D0B8F1670F70D131E00020B9F171
:1007F000110F009001DB112301E009F101030AAAA6
:1008000001A90CA8FFF7E2FEDDE90C70002609F152
:100810000105834647E001204B4600904FF000471A
:100820000AAA01A90CA8FFF7D1FEDDE90DB00C99C9
:100830005D46002610B909F101000D18B9EB05005D
:1008400003D4C0F1FF3609F10105A5EB09002BE047
:10085000B9F1010F01DA4FF001090020B9F1110FD0
:100860000090484601DD112300E003460AAA01A9D1
:100870000CA8FFF7ABFEDDE90C704D460026834661
:10088000207800070AD4AB4500DA5D4601A8012DA7
:1008900004DD411911F8011C302907D04F4502DA57
:1008A00017F1040F04DA012082460FE06D1EEEE717
:1008B000002F02DCED1B3E4403E0781CA84200DD63
:1008C0007D1CB81B00F1010A4FF00047207800079B
:1008D00003D4AA4501DB4FF0FF3A0021B7F1004FE6
:1008E0000DF143088DF8431024D002202B23002F54
:1008F00001DA7F422D230A21021EA0F1010000DC53
:100900005FB197FBF1FC97FBF1F201FB1C7C1746F2
:100910000CF1300C08F801CDEEE7A8F101000370EE
:100920002188090501D5452100E06521A0F10108D4
:1009300000F8011C09980FA9A1EB0807FF1D00B1E1
:100940000120411901EBEA70A1693844081A401EE0
:10095000A0612078C00602D42046AFF30080099839
:1009600028B1D4E901219047206A401C20622078F8
:10097000C00622D52046AFF300801EE0002E04DB27
:10098000B34502DD01A8805D00E03020D4E90121FB
:100990009047206A401C2062761CAAF101005FEAA1
:1009A000000A0AD100F028FBC0680168405CD4E965
:1009B00001219047206A401C2062281EA5F10105F4
:1009C000DCDC07E0D4E9012118F8010B9047206A2C
:1009D000401C2062381EA7F10107F3DC2046AFF36C
:1009E0000080032011B041E601694A1C02610878C9
:1009F000704700B58FB0CDE901310021059105495F
:100A00007944CDE9031011466846FFF709FC0FB0A1
:100A100000BD0000E5FFFFFF0A6802F8010B0A6055
:100A20007047D1E900239A4202D2531C0B60107028
:100A300070473A2800D2303820F02002412A01D3F2
:100A4000A2F13700884201D34FF0FF307047000019
:100A50002DE9FF4F06468BB00878FF2806D0491CC9
:100A60002D2805D000244FF0000908E000200CE0FC
:100A70000124F8E709EB8903491C00EB43090878D6
:100A8000FF28F7D114B1C9F1000081461078002584
:100A90002C46AA4629462D2801D02B2804D1521CC9
:100AA0002D2813D0002082468B461078FF280FD0C7
:100AB0004FF0000C0A21521CA5FB017804FB0181B8
:100AC00005FB0C11C5194BEB0104EEE70120EAE729
:100AD000002108464FF00000BAF1000F02D000EBF1
:100AE00080004008C0F38157012F01DD4FF0FF3730
:100AF0000E9955EA040009EB01080BD04FF00209EA
:100B000018F5FA7F16DA4FEACA70002F706008DD18
:100B1000012007E04FEACA70C6E900B00FB0BDE897
:100B2000F08F0020306000F06BFAC0F800901821C0
:100B3000084616E0B8F5FA7F18DD002F02DAF7480C
:100B4000784401E0F6487844D0E90010C6E9001086
:100B500040EACA70706000F053FAC0F800901421A7
:100B600008460FB0BDE8F04F05F0F1BC0021084683
:100B70004FF00000B8F10001099002DAC7F100025D
:100B800000E03A4601DAC8F1000106A800F084FC52
:100B900006AB93E8070003AB83E8070044F23E008E
:100BA0005BEA04010090584604D144F21E012C4631
:100BB0005D460091210C0904014306D100992404EB
:100BC00044EA15442D041039009104F07F4101439B
:100BD00006D10099240244EA15642D0208390091D7
:100BE00004F07041014306D10099240144EA1574D0
:100BF0002D01091F009104F04041014306D10099E5
:100C0000A40044EA9574AD00891E009104F00041EF
:100C1000084304D100986D196441401E00904FF0C4
:100C200001033A466846B8F1000FCDE9014503A932
:100C300002DD01F062FA01E001F035FABAF1000FCD
:100C400004460D4601D084F00044002108464FF0D0
:100C50000000099940F2FF77484010F00C0F07D1CF
:100C600024F00040284303D0C4F30A50B84212D104
:100C700000F0C6F9C0F80090C4F30A50B8420AD197
:100C8000A8487844D0E90010C6E9001004F00041FB
:100C90000843706042E7C6E900543FE72DE9FF4F83
:100CA0001F464FF0000A4FF0FF38454691B0D7E994
:100CB0000146CDF83CA000F09FF9C0680168405C97
:100CC0001090B96912986D1C8847396A8146884727
:100CD0000028F6D1B9F1FF3F0AD0002E24F4D064E9
:100CE00011DDB9F12B0F08D0B9F12D0F0BD102E0B6
:100CF000404615B013E744F48064B96912986D1C3E
:100D00008847761E8146600504A901D52D2000E0A4
:100D10002B20002E01F1010B0DF130088DF8100091
:100D20003FDDB9F1690F08D0B9F1490F05D0B9F12C
:100D30006E0F02D0B9F14E0F1CD13B4601A80095B1
:100D400080E85002DDE912126FF0020005F08EFC1F
:100D5000C11CCED10EE0B96912986D1C884781463E
:100D60001398761E44F4007405600F98401C002E02
:100D70000F9016DDB9F1300FEDD0B9F1780F02D038
:100D8000B9F1580F0DD10F9801280AD13B46CDE992
:100D90000054DDE91212001F029605F065FCC11C2B
:100DA000A7D1109989453ED144F0800406E01399FB
:100DB000681CAAF1010A44F400740860B9696D1C4A
:100DC0001298761E884730288146F0D02BE0109983
:100DD000894505D1200603D4761E44F0800418E02E
:100DE000484604F066F808B3761E0DF123018B45E2
:100DF00044F4007408D2A9F130000BF8010B20066E
:100E000007D5AAF1010003E0200602D40AF101008F
:100E10008246A00502D51399681C0860B96912982A
:100E20006D1C88478146002ED1DC53E0002E51DD39
:100E3000B9F1650F02D0B9F1450F4BD1A00549D5E5
:100E4000B9696D1C1298761E24F440748847002EF0
:100E500081460CDD2B2804D0B9F12D0F07D144F4C5
:100E60008074B96912986D1C8847761E8146E0052A
:100E700001D52D2100E02B2108F8011BCDF80080C1
:100E800021E0761E0DF13901884544F400740CD23E
:100E9000A9F1300010F0FF0088F8000002D100999D
:100EA000884509D908F1010806E0E00501D51E488A
:100EB00001E042F20F708246B96912986D1C8847B2
:100EC000814613980560002E04DD484603F0F1FFCB
:100ED0000028D6D1F96912988847FF2053468BF82D
:100EE000000088F8000000200A900B9004AA0CA9CA
:100EF0000AA8FFF7ADFDA00502D46FF00100F8E6E7
:100F000014F0240F12D0E0071CD13868DDE90A1272
:100F1000031D3B600068C0E9001213E0085E00009A
:100F2000FA5D0000BE5C0000F1D8FFFF0AA9684628
:100F300003F04EFFE00705D13868009A011D3960C3
:100F4000006802602846D4E6026811441378016004
:100F500018467047D1600549794451610449794484
:100F6000116200211161114600F0DCB8EDFFFFFFB6
:100F700031010000426842B1016811F8013B23B120
:100F8000521EC0E90012184670470121C160881E38
:100F9000704742685AB1C368016843B983688B429D
:100FA00005D0491E521CC0E90012002070474FF0C6
:100FB000FF3070474FF000020429C0F0128010F09B
:100FC000030C3FF4A4AACCF1040CBCF1020F18BF2F
:100FD00000F8012BA8BF20F8022BA1EB0C01FFF7B2
:100FE00096BA5FEAC17C24BF00F8012B00F8012B00
:100FF00048BF00F8012B704700487047540200209A
:10100000004870473402002030B5B0F10A024FEAC0
:10101000900E71F100034EEA817EB0EB0E0061EBA1
:1010200091014FEA101E4EEA017E10EB0E0041EBDB
:1010300011114FEA102E4EEA016E10EB0E0041EB3B
:1010400011214FEA104E4EEA014E10EB0E0041EB1B
:101050001141401841F100014FEAD00040EA4170CF
:101060004FEAD10110EB80054FEA810444EA907405
:1010700044EB01046D1944EB0404521BA3414FF0EF
:10108000000348BF0A3200D530BD401C41F10001C9
:1010900030BD10B5044600F09BFA0068005D00F01A
:1010A000010010BD2DE9F0411F46044603260168EA
:1010B000072A01F4006004DB08B116A505E016A5B7
:1010C00003E008B115A500E015A521F0100020608F
:1010D000A069C01EA0610FB1401EA0612046AFF301
:1010E00000804FB1D4E9012138469047206A401C66
:1010F0002062C01C206206E0206AFAE7D4E90121E0
:1011000015F8010B9047761EF8D22046AFF3008009
:10111000BDE8F0814E414E006E616E00494E4600C2
:10112000696E66002DE9F34F4FF0000A0C465646F3
:101130008DB001200C9001F10C000B9062690B98AE
:1011400001219047051E2DD0252D2CD0216A8847DE
:10115000C0B162690B9801219047216A8847002835
:10116000F7D16269411E0B98904700E0761CA16997
:101170000D988847216A88470028F7D1E1690D98C2
:101180008847DBE7A1690D988847A842074601D147
:10119000761CD3E7E1690D9888477F1C02D1BAF12C
:1011A000000F6FD06BE162690B9800273D4639460E
:1011B00090472A2804D162690B98012190470125A4
:1011C000DFF8D08262690B9801219047A0F13001CD
:1011D0000A290AD24745E5DC07EB870100EB410706
:1011E000303FDFD445F01005ECE7E90601D46FF09D
:1011F00000476C280AD04C2814D0682815D06A28DB
:101200000DD074281CD07A281AD01DE062690B9882
:10121000012190476C2802D045F0040514E045F008
:1012200002050DE045F020050AE062690B980121F6
:101230009047682802D045F0080505E045F40065B0
:1012400062690B9801219047C4E9015765283DD098
:1012500019DC58287AD00CDC452837D004DC252846
:1012600026D041289ED131E046282FD0472899D159
:101270002CE05B2877D0612828D063287CD06428B4
:1012800023D15AE0F6E06F2848D008DC66281DD04C
:1012900067281BD0692821D06E2816D127E0702836
:1012A00045D0732868D0752847D078280DD14DE0F7
:1012B000A1690D988847252805463FF469AFE16983
:1012C0000D9888476D1C3FF46AAFD8E00D9923460E
:1012D0006A466FF0010005F0C5F9C5E045F0400031
:1012E00023464FF000026060A80736D43EE0E807CE
:1012F0007FF447AF2068011D21600068290501D5F2
:1013000006701BE7290701D5068017E7A90703D553
:10131000F117C0E9006111E706600FE745F04000F2
:1013200023464FF008026060A80716D41EE040F67E
:101330000E0125EA0100606016E045F040002346FA
:101340004FF00A026060A80707D40FE045F04000A4
:101350006060A80708D5234610220D996FF00100A0
:10136000AFF3008080E007E0102223460D996FF074
:101370000100FEF7FBFF77E04FF0000963284F46BE
:10138000C8464B46CB4602D05B2806D038E0E8067C
:1013900001D40120A060012732E06269D4F80CB0CA
:1013A0000B98012190475E2807D14FF0010949466B
:1013B0006269D4F80CB00B989047216939B90021C3
:1013C0000A4603AB43F82120491C0829FADBD8B3AD
:1013D000216949B308F1010862690B98012190471E
:1013E0005D28F4D1B9F1000F09D0002003A951F80C
:1013F0002020D24341F82020401C0828F7DB03AB13
:101400002069002820794FEA40701ED05B462246B2
:10141000CDF80080CDE901970D9900286FF001000B
:1014200020DAAFF300801FE0C11703AA00EBD161FF
:101430004B1121F01F0102EB8302411A13680120B6
:10144000884003431360C7E719E00D99224600283E
:101450006FF00100009702DAAFF3008004E0AFF311
:10146000008001E0AFF3008000280ADA401C06D1BA
:101470000C9820B14FF0FF300FB0BDE8F08F504610
:10148000FAE7E90701D10AF1010A064400200C90AD
:1014900054E60000CCCCCC0C2DE9F0478146164632
:1014A0008AB0354878440DC88DE80D00324878443C
:1014B000801C03AC0DC884E80D0041F69B30084445
:1014C000372190FBF1F290FBF1F5A5F1800501FBCE
:1014D00012041B3C02D56442012000E00020DFF82A
:1014E00098A080460027FA44AAF1BE0A0EE0E00761
:1014F0000AD03246684607EB470101230AEB810117
:1015000000F0E6FD8DE8070064107F1C002CEED192
:10151000194F7F44AE3F19E0E80715D007EB0410E0
:101520000DF1180A90E80E008AE80E00C068F0423B
:1015300001D1981908903246012306A903A800F0AA
:10154000C7FD03AB83E807006D10641C002DE3D1D9
:101550004FF0010332466946B8F1000F03A802D0EC
:1015600000F08CFD01E000F0B3FDC9E90001C9F80D
:1015700008200AB0BDE8F0876454000000487047B6
:10158000340200207546FFF7F9FFAE4605006946B4
:10159000534620F00700854618B020B5FEF714FE2C
:1015A000BDE820404FF000064FF000074FF0000864
:1015B0004FF0000B21F00701AC46ACE8C009ACE8E5
:1015C000C009ACE8C009ACE8C0098D46704700000E
:1015D00010B5FFF711FD001D10BD00BF553F000005
:1015E0002DE9FF4F1F464FF03C0987B04FF00042F6
:1015F000DDE9141001F10108DDF858A002EA4050BD
:101600000390002005908346054604460490B9697E
:10161000461E08988847AAF1010A0290BAF1000F05
:101620003BDD02982E2815D01021FFF702FA002882
:101630002EDB4FF0010B0599014317D0B9F1000FD4
:101640000BDB4A46C11700F03FFA05430C43A9F1F2
:10165000040905E0012004900BE008B145F0010504
:1016600001200590049820B9361D02E0049800B1CD
:10167000361FB969089808F101088847BBF1000FC7
:10168000AAF1010A0290C9D00999C1F80080C5E702
:101690000298702808D0502806D0F9690898884721
:1016A000BBF1000F14D04FE0002002900120BBF1ED
:1016B000000F049009D0B969089808F1010888471B
:1016C000AAF10109B9F1000F07DCF9690898884708
:1016D0006FF001000BB0BDE8F08F2B2804D02D284F
:1016E0000CD14FF0FF300490B969089808F1010857
:1016F0008847A9F10109B9F1000FE6DD411CE4D0EA
:101700000A21FFF796F90028DFDB029908F10108AA
:1017100001EB810100EB41000290B969089888470C
:101720000A21FFF786F9099AA9F10109B9F1000F19
:10173000C2F8008001DD0028E7DAF96908988847D7
:101740000499029800FB016655EA040004D004F0F5
:101750004041090002D006E0039898E0A40044EA62
:101760009574AD00B61E04F00041080002D16D1959
:101770006441761E159810F0240F03D04FF00B092A
:101780005C4803E04FF028096FF07D008246564523
:1017900007DAAAEB06018944B9F1410F01DD4FF0E8
:1017A000410901200021A9F1010200F08DF9024652
:1017B00028400B462140084301D0012100E00021D0
:1017C000501E029143F1FF3128402140084301D0CF
:1017D000012000E000200299834651EA0B014FD01E
:1017E000002108464FF00000039900F4400039B191
:1017F00000EB80004FF4400100EBD07001EA600084
:101800008015012802DD4FF0FF3000E013D0401CAE
:1018100036D0029860B3BBF1000F0CD14A460120CC
:10182000002100F051F928402140084301D0012057
:1018300000E00020E0B101204A46002100F044F918
:10184000034640190A4661412D1A8C4111D3B9F162
:10185000400F09DD159810F0240F02D0AAF13406CC
:1018600003E0AAF1170600E0761C00254FF00044C3
:1018700006E05B1E42F1FF3220EA030521EA020482
:10188000CAF10100B04206DA1B49039808430190EF
:10189000002000900EE0039AC4F3D321E80A0A4323
:1018A000164940EA44500A433146CDE900026846F1
:1018B00003F0F4FA159810F0240F0BD01598C00718
:1018C00015D13868DDE90012031D3B600068C0E9EE
:1018D00000120CE002A8694603F07AFA1598C007D6
:1018E00005D13868029A011D3960006802604046DF
:1018F000F0E6000002FCFFFF0000F07F0000F03F78
:101900002DE9FF4F92461D4685B04FF00041DDE9BD
:10191000124BDDE914727F1E01EA4B50414940F041
:10192000FF4940EA0108002122F0200049280491E3
:1019300002D04E2828D04CE03BA0012607C88DE8F5
:101940000700A9690698641C88477F1E014606D4D3
:101950001DF8060018B121F0200181420BD0E96981
:1019600006988847032E34D0082E32D06FF001003D
:1019700009B0BDE8F08F761C032E01D0082EE0D10F
:10198000601CCAF80000DCE7A9690698641C884757
:101990007F1E2AD420F02000412826D1A96906986C
:1019A000641C88477F1E20D420F020004E281CD1C4
:1019B000A9690698641C88477F1E48F4002849F4EA
:1019C0008009CAF8004001D4282806D0E9690698A1
:1019D00088475FEACB7012D022E0A9690698641CA0
:1019E00088477F1E01D4002803DAE96906988847F2
:1019F000BCE72928F1D1641CCAF80040E9E71BF0D4
:101A0000240F07D028680499031D2B600068C0E9E3
:101A1000001805E02868021D2A600068C0F80090E0
:101A20002046A5E70000F07F494E46494E495459EB
:101A30000000000010B50446AFF300802046BDE86A
:101A40001040FEF7ADBB00004FF0013C50F8042BF6
:101A500051F8043B9A4221D1A2EB0C03934313EAC1
:101A6000CC1317D150F8042B51F8043B9A4215D1EE
:101A7000A2EB0C03934313EACC130BD150F8042BC5
:101A800051F8043B9A4209D1A2EB0C03934313EAA9
:101A9000CC13DBD04FF00000704700BFD01A01BA62
:101AA000B1FA81F101F0180122FA01F0CB40C1F145
:101AB0002001DBB2C0B2C01A2CFA01F3D11A914353
:101AC00011EAC311E6D17047B2F120030AD5C2F181
:101AD000200301FA02F120FA03F300FA02F041EACE
:101AE0000301704700FA03F14FF000007047000057
:101AF00001491820ABBEFEE72600020070475FEAEE
:101B0000400C08BF91F0000F4FEA8C234FEAC1222E
:101B100043EA51514FEA1C5018BF00F5F0404FEA1C
:101B2000300018BF41F000415FEA6C5C00F0298092
:101B3000BCF1FF3F08BF40F080407047130C06BF68
:101B400012044FF0100C4FF0000C130E04BF1202E1
:101B50000CF1080C130F04BF12010CF1040C930FCD
:101B600004BF92000CF1020CD30F04BF52000CF121
:101B7000010C11464FF00002A0F11F00A0EB0C0079
:101B8000704711F0004F08BF704731F000413FF43B
:101B9000D5AF0B0C06BF09044FF0100C4FF0000C32
:101BA0000B0E04BF09020CF1080C0B0F04BF090156
:101BB0000CF1040C8B0F04BF89000CF1020CCB0F4D
:101BC00004BF49000CF1010CCCF12003A0EB0C0088
:101BD00022FA03F302FA0CF241EA030100F10100D8
:101BE000704720F07F4C80EA030023F07F47ACEB86
:101BF000070303F57C5300F0004003F1FF032DE9D8
:101C000080494FEA154B09B44FEA144325EA0B4EBD
:101C100024EA03480FF2042606EB132749083E780E
:101C20005FEA320203FB0667C7F5000707FB06F60B
:101C30004FEA54374FEAD64606F1020607FB066C18
:101C4000CCF1005C4FEA1C472CEA074C07FB06F47A
:101C50000CFB06F504EB15464FEA961634BF002040
:101C60004FF000404FEAD13706FB07FC4FEA1C4C0F
:101C70000CFB0BF7D21B03FB0CF761EB07010CFB12
:101C80000EF7B0EB074072EB17420CFB08F734BFBE
:101C9000A2EB0742B2EB074261EB17414FEA0C445B
:101CA0004FEA910706FB07FC4FEA1C4C0CFB0BF7B5
:101CB000B0EBC74072EB573203FB0CF734BFA2EB1B
:101CC000C742B2EBC74261EB57310CFB0EF7B0EBEA
:101CD000C70072EB57720CFB08F734BFA2EBC702C8
:101CE000B2EBC70261EB5771039F4FEA816141EA92
:101CF000921104EBCC044FEAD1374FEA826206FB23
:101D000007FC42EA90124FEA80604FEA1C4C0CFB41
:101D10000BF7D21B03FB0CF761EB07010CFB0EF773
:101D2000B0EB074072EB17420CFB08F734BFA2EB95
:101D30000742B2EB074261EB17414FEA8C554FEA7D
:101D4000910704EB9C2406FB07FC4FEA1C4C0CFBA0
:101D50000BF7B0EBC74072EB573203FB0CF734BF05
:101D6000A2EBC742B2EBC74261EB57310CFB0EF757
:101D7000B0EBC70072EB57720CFB08F734BFA2EB55
:101D8000C702B2EBC70261EB577115EB4C254FEA66
:101D9000816141EA92114FEA82624FEAD13742EA09
:101DA000901206FB07FC44F100044FEA80604FEA02
:101DB0001C4C0CFB0BF7D21B03FB0CF761EB070170
:101DC0000CFB0EF7B0EB074072EB17420CFB08F769
:101DD00034BFA2EB0742B2EB074261EB174115EBB0
:101DE0001C154FEA813141EA92414FEA823242EAC0
:101DF00090424FEA80304FEA0C7644F1000448EA02
:101E000003434EEA0B484FF0000EB2EB080C71EBA7
:101E1000030724BF624639464EEB0E0E4FF0000B0F
:101E20000018524149414BEB0B0BB2EB080C71EB24
:101E300003077BF1000B24BF624639464EEB0E0EC2
:101E40004FF0000B0018524149414BEB0B0BB2EB2A
:101E5000080C71EB03077BF1000B24BF6246394687
:101E60004EEB0E0E51EA020718BF46F0010616EBC4
:101E70000E7655F1000254F1000103D5BDE8890149
:101E8000BDE80088BDE88901BDE80048B6195241A7
:101E900041EB0101A3F10103704780807F7E7D7CCF
:101EA0007B7A7978777676757473727171706F6EEC
:101EB0006E6D6C6C6B6A6A69686867666665646497
:101EC000636362616160605F5F5E5E5D5D5C5C5B21
:101ED0005B5A5A5959585857575656555555545490
:101EE000535352525251515050504F4F4F4E4E4DEE
:101EF0004D4D4C4C4C4B4B4B4A4A4A49494948483A
:101F00004847474747464646454545444444444379
:101F100043434342424242414141000046EA0646B1
:101F2000A3F570534FEA164646EA42564FEAD222CC
:101F300042EA415210B54FEAD121A3F1010300F06A
:101F40002FF820F0004000F1020C00F0004701EBF8
:101F500000501146BCF5006F40EA070000D210BDEA
:101F6000BAF1000F0AD01CB503B44FF004004FF0D3
:101F700004014FF000000FBCBDE810404FF000011D
:101F8000BBF1010FB9BF04484FF0FF3103480021F6
:101F900040EA070010BD00BFFFFFEF7F0000F07FA9
:101FA000002B9C4630D477002BD01CB54FEA370766
:101FB00003B44FF010004FF01001BAF1000F06D03B
:101FC000BCF1000FDCBF40F0080040F008014FF00A
:101FD00000000FBCBDE810400BF1010BBBF1010F7D
:101FE00008BF5FEA170722BF12F1010211F10101D8
:101FF0004FF0004143F1000300F0004043EA0000CD
:102000007047F9D35708D0E746EA064613F1400F68
:102010004FEA16461FDD13F1200FDFBF16430A46B5
:10202000002120335B42BED0C3F1200746EA0646BA
:1020300002FA07F74FEA164646EA0706C3F12007F9
:1020400022FA03F201FA07F721FA03F14FF0000335
:1020500042EA0702A7E746EA020646EA06464FEAD0
:10206000164646EA0106BCBF46EA0646360C4FF065
:1020700000034FF000024FF0000194E72DE9804C7F
:102080009A46934670B491E8380007C831EA400C8C
:1020900048BF34EA430C03D5FFF7A3FDFFF780FFE9
:1020A000F0BCBDE8008C2DE9804C9A46934670B494
:1020B00091E8380007C831EA400C48BF34EA430CC5
:1020C00003D5FFF78EFDFFF729FFF0BCBDE8008CBC
:1020D0002DE9804C9A46934670B491E8380007C8C1
:1020E00010F0804F08BF13F0804F03D100F01AF8B2
:1020F000FFF756FFF0BCBDE8008C2DE9804C9A46F6
:10210000934670B491E8380007C810F0804F08BFBC
:1021100013F0804F03D100F005F8FFF7FFFEF0BC8D
:10212000BDE8008C20F07F4780EA030023F07F4C5D
:1021300007EB0C03A3F57C5300F00040A3F1FE0372
:1021400092F0000F00F0B38095F0000F00F0778060
:102150002DE901494FEA11404FEA144621EA0048AF
:1021600000FB06FC24EA064708FB06F607FB08F816
:1021700000FB07F718EB06484CEB164C4FEA124BE6
:1021800018EB07484FEA15464CEB174022EA0B4E76
:102190000BFB06FC25EA06470EFB06F607FB0EFEC8
:1021A0000BFB07F71EEB064E4CEB164C4FF00006F0
:1021B0001EEB074E4CEB174B18EB0B0840F10000E1
:1021C00018EB0E0B58EB000840F100008F1A4FF08F
:1021D00000013CBFC943661B14BFB5EB040C0021D2
:1021E0003CBFC943F61B4FEA17444EEA8E0E27EA5E
:1021F00004454FEA1C4704FB07622CEA074C05FB29
:1022000007F70CFB05F604FB0CFC16EB074642EB4C
:10221000174216EB0C4642EB1C421BEB060658EB32
:102220000202414146EA9E0601D5BDE80189B61980
:10223000524141EB0101A3F10103BDE801894FEADD
:1022400014454FEA114724EA054621EA074C05FBED
:1022500007F406FB07F70CFB06F105FB0CFC11EB82
:10226000074144EB17444FEA124711EB0C4144EB92
:102270001C4422EA074C05FB07F206FB07F70CFBA0
:1022800006F605FB0CFC16EB074642EB174216EB75
:102290000C4642EB1C456A1854F1000148BF7047D8
:1022A000B619524141EB0101A3F10103704795F0CA
:1022B000000F37D04FEA11424FEA144721EA024695
:1022C00024EA074C02FB07F106FB07F70CFB06F4B8
:1022D00002FB0CFC14EB074441EB17414FEA154796
:1022E00014EB0C4441EB1C4125EA074C02FB07F5BB
:1022F00006FB07F70CFB06F602FB0CFC16EB074689
:1023000045EB174516EB0C4645EB1C42121951F1F3
:10231000000148BF7047B619524141EB0101A3F1DA
:10232000010370474FEA14454FEA114724EA054676
:1023300021EA074C05FB07F106FB07F70CFB06F249
:102340004FF0000605FB0CFC12EB074241EB174176
:1023500012EB0C4251EB1C4148BF7047921841EB05
:102360000101A3F101037047FEE7000010B50E491B
:1023700003F0ACFF03F034FE0C4A0D4B03F0DCF924
:1023800003F06EFBB0F57A7F02DB40F2E73004E049
:102390004FF4FA71884200DA084606490863064994
:1023A0000968486310BD000000C0794446B6F3FDDB
:1023B000D438364000000020F0000020014800F032
:1023C0008BB80000F001002030B590F84050012497
:1023D000AC40C56B6C60046863604368102B036895
:1023E00003D099600068C26030BD9A600068C16027
:1023F00030BD704772B6FEE710B590F8211000228C
:10240000022905D00421816380F82020012010BD1D
:1024100001680B6823F00E030B6001680B6823F062
:1024200001030B6090F84030C46B012101FA03F303
:10243000636080F8211080F82020104610BD000055
:1024400010B590F821100024022903D004218163E3
:1024500001243DE001680A6822F00E020A6001686A
:102460000A6822F001020A601A4A0168914201D109
:10247000012121E0174A1432914201D110211BE0C1
:10248000144A2832914201D1891515E0114A3C3293
:10249000914201D189140FE00E4A5032914202D18B
:1024A0004FF4803108E00B4A6432914202D14FF47C
:1024B000801101E04FF08071064A083A5160012115
:1024C00080F82110002180F82010416B01B188476D
:1024D000204610BD080002402DE9F05FC16B0C687A
:1024E00001680B68D0F840C0042202FA0CF2494D92
:1024F000DFF824A1494E4A4FDFF828B1DFF828E180
:1025000022422CD05A072AD50A68920603D40A68B8
:1025100022F004020A600168A94201D1042219E0F4
:10252000514501D1402215E0B14202D14FF4806201
:1025300010E0B94202D14FF480420BE0594502D17C
:102540004FF4802206E0714502D14FF4800201E091
:102550004FF080622F4908394A60C16A3BE04FF072
:10256000020808FA0CF818EA040F4FF000094FF0BF
:10257000010235D05FEA837832D50B689B0605D41B
:102580000B6823F00A030B6080F821200168A94240
:1025900001D1022219E0514501D1202215E0B142BA
:1025A00002D14FF4007210E0B94202D14FF4005250
:1025B0000BE0594502D14FF4003206E0714502D1DB
:1025C0004FF4001201E04FF00072124908394A60DE
:1025D00080F82090816A00291AD0BDE8F05F084792
:1025E000082505FA0CF5254212D01B0710D50B68FB
:1025F00023F00E030B6090F84010C36B02FA01F158
:102600005960826380F8212080F82090016BE2E716
:10261000BDE8F09F080002401C000240300002406C
:1026200044000240580002406C00024030B528B31C
:1026300008C8134914221944B1FBF2F18900C1639F
:1026400010498163022141771A6843F6F0718A4389
:10265000D0E900142143D0E902452C432143046909
:1026600021434469214384692143114319600021B6
:102670004163012242770177084630BD012030BD19
:10268000F8FFFDBF0000024070B5044690F820003E
:10269000002501280CD0012084F8200094F8216046
:1026A0000020012E06D084F820000225284670BDA7
:1026B000022070BD022684F82160A06320680668AD
:1026C00026F0010606602046FFF77EFEE06A00283D
:1026D0002068016802D041F00E0106E021F00401FB
:1026E00001602068016841F00A010160206801680A
:1026F00041F001010160D9E72DE9F84FDFF8B89109
:102700000024A9F1040B23460F2709F1040AABF1B9
:10271000040EC9E00125A5402A40AA427DD1674E9A
:10272000D1F804C0ACEB0608B44532D014DCBCF1DF
:10273000030F3AD009DCBCF1000F2AD0BCF1010F25
:102740001CD0BCF1020F31D11DE0BCF1110F17D02C
:10275000BCF1120F2AD119E0B8F5881F19D006DC98
:10276000B8F5803F15D0B8F5801F1FD111E0B8F53E
:10277000001F0ED0B8F5041F18D10AE0CB6815E091
:10278000CB681B1D12E0CB6808330FE0CB680C331D
:102790000CE08B682BB1012B4FF0080303D045618F
:1027A00004E0042302E0056100E00023FF2A01D8D1
:1027B000064601E000F104064FEA840501D9A5F1BF
:1027C0002005D6F8008007FA05FC28EA0C0803FA71
:1027D00005F548EA0508C6F800804D68ED0062D5A9
:1027E000374DAE6946F00106AE61AD6924F00306CF
:1027F00005F001050095334D06EB050CDCF808509B
:10280000A607360F07FA06F825EA0805DFF8B880AC
:10281000404503D14FF0000817E044E0DFF8AC80FA
:10282000404502D14FF001080FE0DFF8A480404599
:1028300002D14FF0020808E0DFF89880404502D14D
:102840004FF0030801E04FF0040808FA06F848EAE0
:102850000508CCF808804D68D9F80060ED024D46B7
:1028600001D5164300E096432E604D68DAF800600B
:10287000AD02554601D5164300E096432E604D68E3
:10288000DBF80060AD035D4601D5164300E09643DA
:102890002E604D68DEF80060ED03754601D51643E5
:1028A00000E096432E60641C0D682A46E5407FF4E4
:1028B00031AFBDE8F88F000008040140000011109E
:1028C000001002400000014000080140000C0140DF
:1028D00000100140001401408068084000D0012031
:1028E0007047C26821EA02030A4043EA02410161DB
:1028F00070470AB1016170470904FBE7014880682D
:1029000070470000480000200248816802781144A6
:102910008160704748000020074810B5016841F009
:1029200010010160032000F075F80F2000F006F898
:1029300000F024F8002010BD0020024070B50D4DBD
:1029400004464FF47A712878B1FBF0F00A4909681F
:10295000B1FBF0F000F0DCFA48B9102C07D20022ED
:102960002146501E00F036F800206C6070BD01203A
:1029700070BD000048000020540000200C4808B53D
:10298000816941F001018161816901F001010091DA
:10299000C16941F08051C161C06900F08050009070
:1029A0000448416821F0E06141F00071416008BDD8
:1029B0000010024000000140002809DB00F01F0267
:1029C000012191404009800000F1E020C0F8001191
:1029D00070470000F0B40E4B1B680C46C3F3022393
:1029E000C3F10705042D00D90425191D072901D2BB
:1029F000002300E0DB1E012606FA05F1491E2140F6
:102A000099409E40761E16403143F0BC01F05FBEF7
:102A10000CED00E0064900F0070208684FF6FF03DE
:102A2000184040EA0220034A104308607047000043
:102A30000CED00E00000FA052DE9F0470F46050017
:102A400061D0434E306800F00700B84209D23068C8
:102A500020F0070038433060306800F00700B842CB
:102A600051D128683B4C810712D5400703D56068D7
:102A700040F4E06060602878000703D5606840F4A7
:102A8000605060606068A96820F0F00008436060F2
:102A90002878C00728D06868012810D0216802284B
:102AA00010D0890700292EDA616821F00301014363
:102AB0006160FFF723FF804641F288390DE021680D
:102AC0008903EFE78901EDE7FFF718FFA0EB0801A5
:102AD000494502D90320BDE8F0876068696800F0C5
:102AE0000C00B0EB810FEFD1306800F00700B84266
:102AF0000BD9306820F0070038433060306800F0B0
:102B00000700B84201D00120E5E72878400705D545
:102B10006068E96820F4E060084360602878000796
:102B200006D56068296920F4605040EAC100606001
:102B300000F038F86168084AC1F30311515CC840DD
:102B40000649086006480068FFF7F8FE0020C2E763
:102B50000020024000100240B2660008540000202D
:102B60004C0000200448054900684968044AC1F344
:102B70000221515CC8407047540000200010024000
:102B8000C26600080448054900684968044AC1F360
:102B9000C221515CC8407047540000200010024020
:102BA000C26600080E4A51680E4801F00C03042B5F
:102BB00011D0082B0FD10C48C1F38343C903C05C6B
:102BC0000AD55168084AC1F34041921E515C054A3A
:102BD0005043B0FBF1F07047044948437047000090
:102BE0000010024000127A00A266000800093D00B1
:102BF0002DE9F84F040070D02078C04DC00749D0AF
:102C00006868C0F38100012807D06868C0F38100BC
:102C1000022809D16868C00306D52868800339D521
:102C200060680028E7D035E06068B0F5803F0BD0E1
:102C300010B1B0F5A02F11D0286820F480302860A2
:102C4000286820F4802002E0286840F48030286062
:102C5000606890B1FFF752FE06460AE0286840F42B
:102C600080202860F0E700BFFFF748FE801B642843
:102C700073D828688003F7D50CE0FFF73FFE0646BF
:102C800005E000BFFFF73AFE801B6428F0D82868F3
:102C90008003F7D420789A4E80074FF001094FF057
:102CA000000839D5686810F00C0F07D06868C0F3C9
:102CB0008100022809D16868C00306D4286880070B
:102CC00014D52069012808D110E02069B0B1C6F8F8
:102CD0000090FFF713FE074605E00AE1FFF70EFE3E
:102CE000C01B0228C4D828688007F7D52868616906
:102CF00020F0F80040EAC10028600DE0C6F800802E
:102D0000FFF7FCFD074604E0FFF7F8FDC01B0228B3
:102D100023D828688007F7D4207800072CD5794875
:102D2000A169D9B1C0F80090FFF7E8FD074604E0BB
:102D3000FFF7E4FDC01B02280FD8686A8007F7D5AB
:102D400071484FF4FA510068B0FBF1F0009000BFF9
:102D50000098411E0091FAD20EE080E0C0F8008099
:102D6000FFF7CCFD074604E0FFF7C8FDC01B0228B3
:102D700075D8686A8007F7D42078400760D5E8697D
:102D80000027C00008D4E86940F08050E861E86995
:102D9000012700F0805000905C480168C90513D4F9
:102DA0000168834641F480710160FFF7A7FD824608
:102DB00006E000BFFFF7A2FDA0EB0A0064284ED892
:102DC000DBF80000C005F5D5E06801280AD008B19D
:102DD000052813D0286A20F001002862286A20F014
:102DE000040002E0286A40F001002862E06841F235
:102DF000883B98B1FFF782FD82460BE0286A40F0DD
:102E000004002862EEE700BFFFF778FDA0EB0A019F
:102E100059455AD8286A8007F6D50CE0FFF76EFDB1
:102E2000824605E0FFF76AFDA0EB0A0159454CD840
:102E3000286A8007F6D41FB1E86920F08050E86165
:102E4000E06988B36968C1F38101022944D002288E
:102E5000C6F8608004D0FFF751FD044638E034E046
:102E6000FFF74CFD074604E0FFF748FDC01B0228B2
:102E70002BD828688001F7D4206AB0F5803F05D1AF
:102E80006868A16820F4003008436860D4E908014C
:102E90000843696821F4741108436860C6F86090BB
:102EA000FFF72CFD044606E025E000BFFFF726FDF6
:102EB000001B022809D828688001F7D51BE000BF55
:102EC000FFF71CFD001B022802D90320BDE8F88F84
:102ED00028688001F4D40EE00128F7D06868226ADF
:102EE00000F48031914204D1616A00F4701088428C
:102EF00001D00120EAE70020E8E7000000100240CE
:102F00000000424280044242540000200070004011
:102F100010B5401EB0F1807F01D3012010BD4FF0ED
:102F2000E02460610F21601701F0D1FB0020A06157
:102F300007202061002010BD7047704710B590F841
:102F40003C20012A22D0012280F83C20CA688C68EB
:102F500022F4407222434C6822F4806222430C68BF
:102F600022F4006222430C6922F4805222434C690D
:102F700022F400522243C969002322F480420A430A
:102F800001684A6480F83C30002010BD022010BD6A
:102F900070B590F83C20012A26D0012480F83C40EE
:102FA000022280F83D2003685A689D6822F070066E
:102FB0000A6832435A600D4B02689A4208D0B2F157
:102FC000804F05D00A4B9A4202D00A4B9A4204D154
:102FD000496825F080031943916080F83D40002145
:102FE00080F83C10084670BD022070BD002C0140E6
:102FF000000400400008004010B5040003D094F81D
:103000003D0010B107E0012010BD002084F83C0015
:10301000204600F01FF8022084F83D00211D2068A2
:1030200001F02AF8012084F8460084F83E0084F874
:103030003F0084F8400084F8410084F8420084F89E
:10304000430084F8440084F8450084F83D000020E3
:1030500010BD000008B5114A01681148914208D11D
:10306000816941F400618161806900F40060009031
:1030700008BDB1F1804FFBD1C16941F00101C161CF
:10308000C069002200F00100009011461C20FFF7EB
:10309000A1FCBDE808401C20FFF78EBC002C0140BD
:1030A0000010024090F83D10012901D00120704726
:1030B000022180F83D100168CA6842F00102CA602E
:1030C00000680B49884208D0B0F1804F05D009490B
:1030D000884202D00849884204D1816801F0070182
:1030E000062903D0016841F001010160002070470A
:1030F000002C0140000400400008004070B5044668
:1031000090F83C000025012817D0012684F83C6087
:10311000022084F83D002068826822F0770222F4C1
:103120007F4282600868502838D00DDC20284FD0BC
:1031300005DC90B3102811D14AE0022070BD302880
:1031400046D040280AD13BE060282FD070280DD00F
:10315000B0F5805F03D0B0F5005F12D0012584F890
:103160003D60002084F83C00284670BDCB68D1E962
:103170000121206800F0C3FF2068816841F07701D9
:1031800009E0CB68D1E90121206800F0B8FF206890
:10319000816841F480418160E1E719E0CA684968CB
:1031A000206801F061F85021206806E0CA6849688B
:1031B000206801F06AF86021206800F0AAFFCEE7DD
:1031C000CA684968206801F04FF840212068F4E798
:1031D000226801461046F0E72DE9F0410D46040053
:1031E00003D094F83D0018B108E00120BDE8F0815B
:1031F000002084F83C00204600F040F8022084F8CB
:103200003D002068816844F2070291438160211DDE
:10321000206800F031FF226890689169166A2B6877
:10322000AF69034340F20330814341EA0721A868B4
:10323000EF6908434FF6FC418843E96840EA0720FC
:10324000014328692F6A000140EA07300843696892
:103250006D6926F0220646EA051529439360226827
:10326000906154F8460B0162012004F81F09E075D3
:103270002076E0762077A0750020B7E700B585B00E
:103280000021009101910291039100680E4988424A
:1032900018D10E48C16941F00401C161C16901F052
:1032A00004010491816941F00801816180696946E6
:1032B00000F008000490C020009001200290044813
:1032C000FFF71AFA05B000BD0008004000100240E8
:1032D000000C014070B590F83E60044690F83F50F5
:1032E00090F8423090F84320022021B104290ED0FA
:1032F000012E1BD114E0012E18D1012B16D184F818
:103300003E0084F8420001220021206820E0012DC7
:103310000CD1012A0AD184F83F0084F8430014E05C
:10332000012D03D1012B01D1012A01D0012070BD53
:1033300084F83E0084F83F0084F8420084F843009B
:1033400001220021206800F0CDFE01220421206826
:1033500000F0C8FE2068016841F001010160002012
:1033600070BD704770B50446006801694FF00005F4
:10337000C943890715D4C168C943890711D4E91E17
:10338000016101202077206880698007204602D0F3
:10339000FFF7E7FF04E000F0DDF8204600F06FF9EA
:1033A000257720680169C943490717D4C168C94313
:1033B000490713D46FF004010161022020772068CF
:1033C000806910F4407F204602D0FFF7CAFF04E076
:1033D00000F0C0F8204600F052F925772068016916
:1033E000C943090716D4C168C943090712D46FF04D
:1033F00008010161042020772068C0698007204609
:1034000002D0FFF7AEFF04E000F0A4F8204600F081
:1034100036F9257720680169C943C90617D4C16800
:10342000C943C90613D46FF0100101610820207749
:103430002068C06910F4407F204602D0FFF791FF5A
:1034400004E000F087F8204600F019F9257720689D
:103450000169C943C90708D1C168C943C90704D173
:10346000891E0161204600F059F920680169C943AD
:10347000090609D4C168C943090605D46FF0800163
:1034800001612046FFF758FD20680169C9434906DC
:1034900009D4C168C943490605D46FF040010161F0
:1034A000204600F04FF920680169C94389060BD412
:1034B000C168C943890607D46FF020010161204625
:1034C000BDE87040FFF739BD70BD000010B586B093
:1034D000002100910191029103911A4C03681A494D
:1034E00002221A48A34210D18B6943F004038B6176
:1034F0008969039201F0040104918115CDE900125C
:103500006946FFF7F9F806B010BDB3F1804FFAD164
:103510008B6943F004038B618969039201F0040114
:1035200004914FF40041CDE900126946FFF7E4F839
:103530000748416821F4407141F0E06141F4807135
:103540004160E0E7002C014000100240000801400B
:1035500000000140704770B5044690F83C0000261A
:103560000D4601280FD0012084F83C006AB1042ADE
:103570001DD0082A2FD00C2A3FD00126002084F825
:103580003C00304670BD022070BD206800F0CAFDCE
:103590002068816941F0080181612068816921F01A
:1035A00004018161206881692A69114311E0206862
:1035B00000F0E0FD2068816941F4006181612068CC
:1035C000816921F480618161206881692A6941EA09
:1035D00002218161D2E7206800F0F8FD2068C1690E
:1035E00041F00801C1612068C16921F00401C16195
:1035F0002068C1692A69114311E0206800F012FEB9
:103600002068C16941F40061C1612068C16921F489
:103610008061C1612068C1692A6941EA0221C161F2
:10362000ACE710B5040003D094F83D0010B107E0FA
:10363000012010BD002084F83C00204600F01EF858
:10364000022084F83D00211D206800F015FD0120B6
:1036500084F8460084F83E0084F83F0084F8400077
:1036600084F8410084F8420084F8430084F8440060
:1036700084F8450084F83D00002010BD7047704775
:1036800010B50446022249B104290ED0082913D0EE
:1036900094F84100012816D0012010BD94F83E0096
:1036A0000128F9D184F83E200FE094F83F0001286A
:1036B000F2D184F83F2008E094F840000128EBD1D3
:1036C00084F8402001E084F841200122206800F0C5
:1036D00009FD0F492068884203D1426C42F4004240
:1036E00042642068884208D0B0F1804F05D0094973
:1036F000884202D00849884204D1816801F007015C
:10370000062903D0016841F001010160002010BDCD
:10371000002C014000040040000800400068B0F1A7
:10372000804F0BD10649C869002807DD401EC861DB
:10373000002803DC0520C8610120086270470000F2
:10374000000000207047704770470000F8B501681E
:1037500004460868CA684B6910F00F0F4FF0000567
:1037600059D003F0010602F49077374365D0C107C2
:1037700005D0D10503D5616C41F0010161644107B9
:1037800005D5D90703D0616C41F00201616481075E
:1037900005D5D90703D0616C41F0040161640107CC
:1037A00007D502F02001314303D0616C41F00801DC
:1037B0006164616C00293AD0800604D5900602D578
:1037C000204600F028FE20684069616CC0F380103C
:1037D000090700D460B3204600F0E8FD2068406986
:1037E000400621D52068143050E8001F21F0400128
:1037F00040E80012002AF5D1E06BA8B16D494163A1
:10380000E06BFEF71DFE002811D0E06B416B01B0AC
:10381000BDE8F040084783060FD593060DD5204636
:10382000BDE8F84000F0F7BD2046FFF78DFFF8BD7A
:103830002046FFF789FF6564F8BD266B2023012E23
:103840007CD1C6067AD5D60678D508684868009037
:1038500048694FF00206400640D5E16B08684068B1
:103860000004000CE8D0A28D8242E5D9E085886989
:1038700020282DD020680C3050E8001F21F48071E2
:1038800040E80012002AF5D12068143050E8001FEB
:1038900021F0010140E80012002AF5D1206814301F
:1038A00050E8001F21F0400140E80012002AF5D145
:1038B00084F84230256320680C3050E8001F21F066
:1038C000100140E80012002AF5D1E06BFEF794FDEC
:1038D0006663A08DE18D401A81B22AE0A08DE18D52
:1038E000401A81B2E08D0028A6D00029A4D0226819
:1038F0000C3252E8000F20F4907042E80007002FCD
:10390000F5D12068143050E8002F22F0010240E881
:103910000027002FF5D184F84230256320680C3051
:1039200050E8002F22F0100240E80023002BF5D1D0
:1039300066632046FFF707FFF8BDFFE705062BD5B6
:10394000150629D594F841002128F5D1A068B0F5D5
:10395000805F01D12069B0B1206A411C21622168D9
:1039600000784860E08C401E0004000CE084E3D145
:103970002068C16821F08001C1602068C16841F001
:103980004001C160D8E7206A0088C0F308004860A1
:10399000206A801C2062E5E74006CDD55006CBD5D5
:1039A000CA68204622F04002CA6084F8413000F024
:1039B0000BF9C1E7AF42000870B5040004D094F8D9
:1039C0004100002510B106E0012070BD84F8405090
:1039D000204600F023F8242084F841002068C168C4
:1039E00021F40051C160204600F076FD2068016995
:1039F00021F4904101612068416921F02A0141616F
:103A00002068C16841F40051C1606564202084F8D9
:103A1000410084F842006563002070BD70B586B037
:103A200000250646009501950295039500682249F8
:103A300088423FD12149886940F480408861886983
:103A400000F480400490886940F00400886188692F
:103A50001B4C00F0040004904815009002200190D7
:103A60000320039069462046FEF746FE2015CDE967
:103A70000005694620460295FEF73EFE124C1148AD
:103A8000C4E900058020C4E9025025618001656118
:103A9000C4E906502046FEF7C9FD08B1FEF7AAFCAE
:103AA000F4630022012125206662FEF793FF2520A2
:103AB000FEF782FF06B070BD0038014000100240E2
:103AC0000008014058000240F001002090F8423008
:103AD000202B01D00220704721B11AB100230363CB
:103AE00000F056BD0120704700680C49884213D190
:103AF0000B48427801690B4B0B44491C01611A7059
:103B00000A2A03D101210170002101610449012227
:103B1000491C0548FFF7DABF704700000038014034
:103B200000000020580000208001002070472DE98F
:103B3000F843044690F841001F4616460D462028DB
:103B400002D00220BDE8F8837DB176B10020606428
:103B5000212084F84100FEF7D1FEA6848046E68449
:103B6000A068B0F5805F02D003E00120EAE7206999
:103B700010B12E4600250EE000260CE080212046E4
:103B800000F04EFDA0B9AEB116F8010B21684860F7
:103B9000E08C401EE084E08C43464FF0000200972A
:103BA0000028EBD14FF04001204600F039FD30B144
:103BB0000320C7E735F8020BC0F30800E6E7202032
:103BC00084F841000020BDE77047FEE710B50C4CBB
:103BD00002280DD0032812D1002204212046FEF72E
:103BE00088FE01222046BDE810400821FEF781BE74
:103BF000012204212046FEF77CFE0022F2E710BDE0
:103C0000000801402DE9F04186B0002428480094C6
:103C1000019402940394816941F0100181618169EA
:103C200001F010010491816941F0200181618169F5
:103C300001F020010491816941F0040181618169F1
:103C400001F004010491816941F0080181618069FA
:103C5000184F00F008004FF4005504900022294648
:103C60003846FEF746FEDFF8508000220F2140461E
:103C7000FEF73FFE0095022601250396CDE901548B
:103C800069463846FEF738FD0F20CDE90005CDE93D
:103C9000024669464046FEF72FFD30208DE8310090
:103CA00069464046FEF728FD06B0BDE8F0810000F9
:103CB00000100240001001400008014010B596B00D
:103CC00000240F9410941194129413941C2108A8AA
:103CD0001494FCF71AFC20216846FCF716FC2948CE
:103CE0002749016040F29F51C0E9011440F2E731D9
:103CF000C0E9031444618461FFF77EF908B172B62C
:103D0000FEE74FF480500F900FA91E48FFF7F6F919
:103D100008B172B6FEE71B48FFF783FC08B172B624
:103D2000FEE7139413A917481494FFF731F908B16B
:103D300072B6FEE76020CDE908040A940B940C9457
:103D40000D94002208A90F480E94FFF704FC08B157
:103D500072B6FEE700944FF40050CDE9044002949F
:103D600001940394694607480794FFF7E7F808B100
:103D700072B6FEE70348FFF7A9FB16B010BD0000BE
:103D8000002C0140A800002010B58EB0002407943C
:103D9000089409940A940B941C2168460C94FCF72F
:103DA000B4FB1E484FF08041016040F29F51C0E9D2
:103DB000011440F2E731C0E903148461FFF71CF9F4
:103DC00008B172B6FEE74FF48050079007A9134878
:103DD000FFF794F908B172B6FEE71048FFF721FC2F
:103DE00008B172B6FEE70B940BA90C480C94FFF7D0
:103DF000CFF808B172B6FEE76020CDE90004029466
:103E00000022694605480494FFF7A5FB08B172B685
:103E1000FEE70248FFF75AFB0EB010BDF00000208D
:103E200010B58CB024216846FCF76FFB00241648BF
:103E3000099414490A94C0E900144FF6FF71C0E9CF
:103E40000241046184610320CDE900040120CDE931
:103E500002040494CDE90540079469460A48089491
:103E6000FFF7BAF908B172B6FEE7099409A9064846
:103E70000A94FFF78DF8002801D072B6FEE70CB067
:103E800010BD00000008004038010020FEE7FEE7FA
:103E90007047704770B51B4C1B4DA06AB0F5000F02
:103EA0000BDB012211462846FEF723FD00220221EA
:103EB0002846FEF71EFDA06A0FE010F1FF4F10D359
:103EC000002201212846FEF714FD01220221284686
:103ED000FEF70FFDA06A20F00040BDE87040FEF73D
:103EE00045BA10F0FF4F0BD1012211462846FEF7CC
:103EF00000FD2846BDE8704001220221FEF7F9BC12
:103F000070BD000000000020000801402DE9F041D4
:103F1000314C074610F0FF4F36D00121E06802F027
:103F20007BFB0146A06802F0EFF802F059F8054665
:103F30000E46384602F054F801F0B2FA274F024616
:103F40000B460020394601F0F7FB2A46334601F0C4
:103F50005DFF02460B460020394601F0EDFB00F004
:103F6000AFFF01F0FBFA02F03BF81D4A1D4B01F0D8
:103F70000DFE01F0F3FA1C496062884202D81B4929
:103F8000884203DD616201E000206062606A184DD2
:103F900010F0FF4F09D010F1FF4F08D3154902F080
:103FA00095F9154902F0B0F807E0656309E0B0F54E
:103FB000000F06DB114902F089F9294602F03CF8AE
:103FC00060630F48616B02F04DFA02F05FF90D4932
:103FD00009684863BDE8F081000000200000F03F60
:103FE000E8C35CB0DDA54C400000D4C100000C4229
:103FF0000000A042000070C10000D4419A9999BE0F
:1040000000001643A8000020FEF77EBC30B58FB03C
:1040100028216846FCF779FA14210AA8FCF775FAFA
:1040200001210804CDE90010002402940225049126
:10403000CDE907504FF4E01009906846FEF7D8FD2F
:1040400008B172B6FEE70F20CDE90A054FF4806093
:10405000CDE90C4002210AA80E94FEF7EDFC0028E1
:1040600001D072B6FEE70FB030BD70470148FFF7D0
:1040700079B90000F0000020F0B50268164B174C2B
:10408000174D4FF08047984205D0B84203D0A04268
:1040900001D0A84203D122F070064A683243984208
:1040A00005D0B84203D0A04201D0A84203D122F4E7
:1040B0004074CA6822434C6922F0800222430260A5
:1040C0008A68C2620A688262984201D10969016302
:1040D00001214161F0BD0000002C014000040040BE
:1040E0000008004010B501F01F030121046A994047
:1040F0008C430462016A9A401143016210BD10B5FD
:10410000846842EA032224F47F440A432243826003
:1041100010BD826822F070020A4342F007018160FC
:104120007047000030B5036A026A22F001020262A1
:104130004268846924F073050C682C4323F002055F
:104140008B682B430A4DA8420BD123F00805CB689E
:1041500022F440722B434D6923F0040315438A690E
:104160002A434260846149684163036230BD0000B4
:10417000002C014030B5026A036A23F01003036289
:10418000436884690D6824F4E64444EA05248D6894
:1041900022F0200242EA05120B4DA8420ED1CD6852
:1041A00022F0800242EA05124D6923F4406343EA9B
:1041B00085038D6922F0400243EA850343608461F0
:1041C00049688163026230BD002C014030B5036A4A
:1041D000026A22F4807202624268C46923F40073A6
:1041E00024F073050C682C438D6843EA05230C4DBD
:1041F000A8420ED1CD6823F4006343EA05234D693C
:1042000022F4405242EA05128D6923F4806342EAA7
:1042100005124260C4614968C163036230BD000099
:10422000002C014030B5046A026A22F48052026216
:104230004268C3690D6823F4E64343EA05238D68A9
:1042400024F4005444EA0534064DA84204D14D69D3
:1042500022F4804242EA85124260C36149680164E7
:10426000046230BD002C014010B5036A046A24F0DA
:1042700001040462846924F0F00444EA021423F087
:104280000A020A438461026210BD10B5036A046A1F
:1042900024F010040462846923F0A00324F4704421
:1042A00044EA023243EA01118261016210BD10B595
:1042B000406A0021C185C184FFF746FA10BD70B580
:1042C000446A2068406994F84110C0F3C01000258A
:1042D000212904D118B1E584204600F08EF8206829
:1042E000406994F84210C0F38010222904D118B11B
:1042F000E585204600F05AF8606C40F010006064DC
:104300002046FFF721FA70BD10B50146406A0968E2
:1043100009684FF0000289062ED4C28501680C316D
:1043200051E8003F23F4807341E80034002CF5D1BC
:104330000168143151E8003F23F0010341E80034E3
:10434000002CF5D10168143151E8003F23F04003FF
:1043500041E80034002CF5D1202180F84210016B97
:10436000012909D101680C3151E8003F23F0100305
:1043700041E80034002CF5D14263016B012902D0E1
:10438000FFF7B2FB10BD818DFFF7DDF910BD10B551
:10439000406A01214163016B012902D0FFF7C6FB8E
:1043A00010BD818D4908FFF7CEF910BD01680C31B1
:1043B00051E8002F22F4907241E80023002BF5D140
:1043C0000168143151E8002F22F0010241E8002376
:1043D000002BF5D1016B012909D101680C3151E89D
:1043E000002F22F0100241E80023002BF5D12021FC
:1043F00080F8421000210163704701680C3151E8D8
:10440000002F22F0C00241E80023002BF5D120212B
:1044100080F84110704708B590F84210222901D069
:10442000022008BD82684FF480539A4201D101698D
:1044300021B1816A9A421BD04AB10AE00268816ABE
:104440005268C2F308020A80816A891C08E0026986
:1044500072B10268526802F07F020A70816A491CD8
:104460008162C18D491E0904090CC18503D01BE07E
:1044700002685268F1E70168CA6822F02002CA6047
:104480000168CA6822F48072CA6001684A6922F031
:1044900001024A61202180F8421000214163026B31
:1044A000012A03D0FFF720FB002008BD016301684B
:1044B0000C3151E8002F22F0100241E80023002BBC
:1044C000F5D101680A68D20602D50A6849680091E8
:1044D000818DFFF738F9E7E770B504460068016998
:1044E000E26821F44051114301612169A068084349
:1044F000616908432168CA6841F20C639A43024328
:10450000CA6020684169A26921F440711143416188
:104510001E492068884202D1FEF734FB01E0FEF715
:1045200021FB00EBC00101EB0012606864218000F8
:10453000B2FBF0F3B3FBF1F36FF018067343B2FB79
:10454000F0F5B2FBF0F605EB8305322303EB05151E
:10455000B5FBF1F5B6FBF1F605F0F00505EB061538
:10456000B2FBF0F6B2FBF0F0B0FBF1F06FF0180226
:10457000504306EB800003EB0010B0FBF1F0216824
:1045800000F00F002844886070BD00000038014032
:1045900038B5816204468285002013466064222279
:1045A00084F84220E56B1B4AAA62E56B1A4AEA626C
:1045B000E56B1A4A2A63E26B50630A462168E06B96
:1045C000091DFEF761F820680168406800902069C5
:1045D00048B120680C3050E8001F41F4807140E879
:1045E0000012002AF5D12068143050E8001F41F075
:1045F000010140E80012002AF5D12068143050E88B
:10460000001F41F0400140E80012002AF5D10020CF
:1046100038BD0000094300088F430008BF4200086E
:104620002DE9F041984617460E460446069D27E0C0
:10463000681C25D02DB1FEF761F9A0EB0800A84257
:104640001ED920680C3050E8001F21F4D07140E8DA
:104650000012002AF5D12068143050E8001F21F024
:10466000010140E80012002AF5D1202084F8410021
:1046700084F84200002084F840000320BDE8F08167
:104680002068006836EA000004D00020B842CFD08D
:104690000020F3E70120F9E70148FFF757B80000D1
:1046A00080010020FEE7490050EAC12018BF042025
:1046B0004A0D18BF40F0010040F2FF72B2EB515FAB
:1046C00008BF40F00200012808BF05207047090715
:1046D000090E002804DB00F1E02080F80014704788
:1046E00000F00F0000F1E02080F8141D704700007A
:1046F0002DE9F74F144694B00021C4E90211159931
:10470000079121F00045C9498D4206DC1599C4E99D
:10471000000117B00020BDE8F08FC549DFF814A3F1
:10472000A9423CDD0799C44E0029C44FC44A1599DB
:10473000534619DD01F06AFB554506D0C14AC24B0C
:1047400001F064FBC4E900010AE04FF0D352BE4B14
:1047500001F05CFB32463B4601F058FBC4E9000126
:1047600017B00120BDE8F08F00F02AFF554506D0B4
:10477000B44AB54B00F024FFC4E900010AE04FF051
:10478000D352B14B00F01CFF32463B4600F018FFFD
:10479000C4E9000117B04FF0FF30BDE8F08FAB491E
:1047A000A942159978DB21F0004183468846A84A42
:1047B000A84B01F0EBF90022A74B00F001FF01F03C
:1047C0004FF9099001F07BF906460F469C4A534683
:1047D00001F0DCF943465A4601F00CFB80468A465C
:1047E000984A994B3046394601F0D0F92A0D0125F7
:1047F0000B924246534601F0FDFA032DC4E9000135
:1048000039D00B98C1F30A51401A05EB4511113903
:10481000814230DA9148C346784400EB0510CDF868
:104820000CA00C90D0E900233046394601F0AEF9D7
:1048300002460B46049106905846039901F0E6FAA9
:1048400080468A4602460B465846039901F0DEFA36
:10485000049B069A01F0DAFA83460C9803913946D4
:10486000D0E90223304601F091F95A46039B01F04A
:10487000CDFA6D1CBDE707980028A2BF099817B0B4
:10488000BDE8F08F616881F000416160099817B060
:104890004042BDE8F08FFFE784461598C1F313014D
:1048A000C0F30A50A0F2F5304FEA601800F01F067E
:1048B000C6F12000139000200690079041F4801E5E
:1048C00005206D4676B1664A08EB00017A4452F83D
:1048D000213002EB8101B3404A68139922FA01F1B9
:1048E000194305E05F4908EB0002794451F82210B2
:1048F000A1FB0E27A1FB0C131A449A4234BF0123DB
:10490000002303EB070A05EB8003D3E901B70F444B
:104910008F4234BF0121002193448B4411B1934550
:1049200002D903E0934501D2012100E00021C3E94F
:1049300001B7514445F82010011EA0F10100C1DC6F
:104940000298059F00F10050800F12900298DDE957
:104950000356800001F0B3F8834628460D9101F01C
:10496000C5F86FF01D0201F029FECDE90E013046B9
:1049700001F0BCF86FF03D0201F020FE80468A464F
:10498000384601F0B3F86FF05D0201F017FE0746FC
:1049900042465346119100F013FEDDE90E2300F06C
:1049A0000FFE5A460D9B00F00BFE00250E465A46A0
:1049B00028460D9B01F02AFADDE90E2301F026FAC4
:1049C0004246534601F022FA3A46119B01F012FA90
:1049D000DFF898A0244A534601F0D8F807468846E5
:1049E000234A244B3146284601F0D0F83A46434644
:1049F00000F0E6FD074688464FF0A8425346314690
:104A0000284601F0C3F83A46434600F0D9FD159A0E
:104A100012F0004F04D0129A81F0004152421292DB
:104A2000C4E90001129817B0BDE8F08FFB21E93FFF
:104A30007CD90240FB21F93F7370032E8A19A33BF6
:104A4000000040543163621A61B4D03DFB2139410A
:104A500083C8C96D305FE43F0000E03F4C1F000099
:104A6000C81E0000AA1E0000182D4454FB21F93D69
:104A70003326A611460B113C2DE9F0414F1E00EBE9
:104A8000C7010446D1E9000115461E4637F006026B
:104A90000DD02A46334601F079F87F1E04EBC70398
:104AA000D3E9002300F08CFD37F00602F1D1022F8C
:104AB00025D0042F13D0062F18BFBDE8F0812A4659
:104AC000334601F063F8D4E90A2300F079FD2A4661
:104AD000334601F05BF8D4E9082300F071FD2A4663
:104AE000334601F053F8D4E9062300F069FD2A4665
:104AF000334601F04BF8D4E9042300F061FD2A4667
:104B0000334601F043F8D4E9022300F059FD2A4668
:104B1000334601F03BF8D4E90023BDE8F04100F052
:104B20004FBD00002DE9F04D04468CB0904821F0B7
:104B30000047164698460D460991874206DA2046F8
:104B4000294600F08DFF002800F0AE808948B84269
:104B50001CDC09980028BCBF85F0004588F000489F
:104B6000854A864B2046294601F044F904460D4605
:104B7000324643468248834901F048F922462B4693
:104B800000F01EFD002604460D46B04622462B4688
:104B90001046194600F0FAFF8B46824602460B4645
:104BA00000F0F4FF0246089077480B46009106217A
:104BB0007844FFF761FFCDE903107448062178447B
:104BC000009B089AFFF758FF52465B4600F0DEFF55
:104BD000CDE9051052465B462046294600F0D6FF37
:104BE00007910090DDE90310DDE9053200F0E8FCF3
:104BF000079B009A00F0CAFF3246434600F0E0FCF3
:104C000052465B4600F0C2FF3246434600F0D8FCF5
:104C100080460E465E4A5F4B0799009800F0B6FF4B
:104C20004246334600F0CCFC82468B4622462B4659
:104C300000F0C6FC80464F480E46B84214985BDC34
:104C400000F03DFF074642463346059100F0B8FCB0
:104C5000CDE90110424633461046194600F096FF52
:104C6000DDE9013200F068FD52465B4601F0CEF806
:104C700022462B4601F0BEF8012201F09FFC3A4685
:104C8000059B01F0B7F804460D460998022101EA98
:104C9000A070C0F1010000F012FF0CB022462B46BC
:104CA000BDE8F04D00F072BF1498401C384320431B
:104CB0000BD01498012812D00CB022462B46BDE828
:104CC000F04D0020344900F037BD0CB025F0004312
:104CD0002246BDE8F04D0020304900F02DBD2046B1
:104CE0002946FFF7E0FC042808BF00F069F82046D9
:104CF0000CB02946BDE8F08D012802BF40460CB03B
:104D0000BDE8F08D00270B463A462046294601F0C3
:104D100071F852465B4601F06DF804460D46424676
:104D2000334600201C4900F007FD83463A4688467A
:104D30003346104600F02AFF0022184B00F040FCDA
:104D400006468A4622462B463846414600F01EFF5C
:104D50003246534600F034FC5A46434600F016FFF4
:104D60000CB03A464346BDE8F04D00F029BC0000C7
:104D70000000303E2894E53F182D4454FB21E93FC4
:104D8000075C143326A6813C7C1C00009E1C00009E
:104D9000635555555555D53F0000F0BF0000F03F15
:104DA000012201F00BBC002213461046114600F010
:104DB000C3BC40F2013200204FF0E04101F0FEBBE5
:104DC000024A0020110701F0F9BB000001FDFFFFBE
:104DD00010B50446D1E9000100F002F8206010BDD2
:104DE000F8B504460D466A4600F07AF900987E3020
:104DF000009000281EDC002213462046294600F0C1
:104E0000F3FD17D0002140F608004FF000000646E1
:104E10002046294600F0A2FB044640F6080006EAB8
:104E200000014FF0000034F0004004BF0220FBF707
:104E3000C6FB29E00098FF2828DB002108464FF038
:104E4000000000F44006002213462046294600F0E8
:104E50009BFF8CBF002501250220FBF7B0FB4FF024
:104E6000FF4446B1002D0CBF4FF400004FF480000A
:104E7000B04218BF084C042108464FF00000002D36
:104E800004BF84F00040F8BD2046F8BD2046294606
:104E9000BDE8F84000F062BBFFFF7F7F10B504461D
:104EA0000A46D4E90003194600F046F9C4E90001B6
:104EB00010BD30380A2801D2012070470020704709
:104EC0002DE9F84F04460D4621F00040009173494A
:104ED000814211DC7249884201DC06D12CB12046A6
:104EE0002946BDE8F84FFFF75BBF6E48002DCCBFE9
:104EF0006D496E49BDE8F88F6D49814211DD6D49FC
:104F00008142D8BF4FF0FF366DDD20462946FFF7BE
:104F1000CAFB042808BFFFF753FF20462946BDE817
:104F2000F88F6549654F25F00045814233DD6449BE
:104F3000814219DD002632464FF080432046294643
:104F400000F03EFB80468A4601222046294601F0B9
:104F500035FB00223B4600F059FF4246534600F025
:104F6000EBFB04460D463EE001260022BA463B46D6
:104F70002046294600F024FB80460F460022534677
:104F80002046294600F042FF42463B4600F0D4FB53
:104F900004460D4627E04B4981421BDDDFF828A17E
:104FA0000226002253462046294600F0EFFD00224B
:104FB0003B4600F005FB80460F4600225346204644
:104FC000294600F023FF42463B4600F0B5FB04466D
:104FD0000D4608E0032622462B4600203B4900F000
:104FE000ABFB04460D4622462B461046194600F000
:104FF000CDFD8B46824602460B4600F0C7FD0746B4
:105000000246334888460B4606217844FFF734FDB4
:1050100052465B4600F0BAFD82462E488B463A4621
:10502000434605217844FFF727FD3A46434600F002
:10503000ADFD02460B46002E504659460CDA00F0F4
:10504000BFFA22462B4600F0A1FD01B022462B46B6
:10505000BDE8F04F00F0CEBE00F0B2FA22462B467B
:1050600000F094FD1C4A7A4402EBC603D3E9002306
:1050700000F0CCFE22462B4600F0C8FE174A7A44C8
:1050800002EBC603D3E9002300F0B4FE009A002A25
:10509000B8BF81F00041BDE8F88F00000000104467
:1050A0000000F07F182D4454FB21F93FFB21F9BF8C
:1050B0000000DC3F0000203E0000F33F0000F03F16
:1050C0000000E63F008003400000F83F0000F0BF12
:1050D0002A170000E8160000861600004E16000091
:1050E00010B5144600222260114A21F00043934279
:1050F000A8BF10BD53EA000208BF10BDB3F5801F62
:10510000A8BF226807DA362201F058FA6FF035029C
:1051100021F000432260DFF81CC06FF31E510CEB3E
:1051200023531A4441F0FF5141F00051226010BD59
:105130000000F07F02FCFFFF2DE9F04106460C461F
:1051400040F2FF75174635EA14502BD00022134663
:10515000304600F049FC25D03A463046214601F061
:105160002DFA06460C4635EA145010D0002213469C
:10517000304600F039FC15D10220FBF720FAFFF78A
:105180001FFE0A46214662F31E01BDE8F08102209F
:10519000FBF715FAFFF70DFE0A46214662F31E01E2
:1051A000BDE8F08130462146BDE8F08108B5FDF745
:1051B000B3FBFEF72BFFFEF725FD9048416941F058
:1051C000010141614069002200F001000090114698
:1051D0000F20FDF7FFFB0F20FDF7EEFBFEF76EFD46
:1051E00088488749002501604FF4E121C0E9011595
:1051F0000C21C560C0E904518561C561FEF7DCFB87
:1052000008B172B6FEE7FEF7BFFDFEF709FE2821E2
:105210007D48FBF77AF97C4828212830FBF775F99F
:10522000784828214830FBF770F901227749754802
:10523000FEF74CFC744800215030FEF721FA71480B
:1052400000219038FEF71CFA6E4804214838FEF71A
:1052500041F86C489038FDF725FF0020FEF756FE18
:105260000020FEF717FE694C641ED4E91023606924
:1052700000F0E8F8DFF898B1DFF898A1206AE8B309
:105280006048256248380068406A6080B4F90200CE
:10529000B4F90410401A00F012FC00225E4BC4E97D
:1052A0000E0100F071FD4FF0000205D2D4E90E01AD
:1052B0005B4600F0ABFD0BE0D4E90E01574B00F06C
:1052C00029FC07D2D4E90E0100225B4600F078F9F0
:1052D000C4E90E016088A080D4E90E01012201F02A
:1052E0006DF94F4A4F4B00F051FC4F4A4F4B00F0C5
:1052F00023FAD4E9102300F063F900E006E0C4E9E2
:10530000100102460B46606900F09CF810215646D9
:105310005046FDF7E1FA28B120213046FDF7DCFACE
:1053200088B122E0A069032809D101220421304676
:10533000FDF7DFFA012208213046FDF7DAFAA0690D
:10534000022810D011E0A069022809D1012204210D
:105350003046FDF7CEFA012208213046FDF7C9FAA2
:10536000A069032801D1FEF731FC2078002885D000
:1053700025702549272201F12800FBF7EDF82821A7
:105380002148FBF7C2F8204F0A2128373846FBF79F
:1053900093F80646DFF89880DFF898902AE01B4BD8
:1053A00035702733A3F1140223A13846FAF7C0FF62
:1053B000022808D0154A22A117323846FAF7B8FF5A
:1053C00001280DD00FE0606940450CD848450ADA45
:1053D000FEF79CFDA06AFEF75DFD6069E06202E0F9
:1053E000A069FEF7F3FB761C37460A213046FBF72F
:1053F00063F80646002EBAD0D1E700000010024044
:1054000000380140800100205800002001000020E9
:105410000000F04000080140C0FFDF400000E0C095
:105420006E861BF0F92109406766666666B6914094
:105430009A9919BF9A99193F25663B256600000085
:10544000256400007FB5064614461D464FF4005102
:105450000E48FDF746FA304600F0C2FD8DE83300F5
:105460000BA228210D48FAF7C1FE0C48FBF72EF8D5
:105470000A4982B21423A1F14800FEF758FB04B098
:105480002821BDE870400548FBF73FB800100140F7
:10549000252E33663B252E33660A0000C801002006
:1054A00010B5164B21F00042012486B09A4203DC6D
:1054B0000022134600941CE0114B9A4208D140B9D7
:1054C0004FF00100FBF77BF8FFF76DFC06B010BD55
:1054D00003DBFFF765FC06B010BD02AAFFF708F971
:1054E00000F00100A4EB40000DF1080C00909CE8D6
:1054F0000F00FFF717FB06B010BD0000FB21E93FCE
:105500000000F07F10B500290AD00878002807D0E5
:1055100005487844FCF798FA002801D0002010BD17
:105520000248784410BD0000421400003A14000004
:1055300010B500290AD00878002807D0054878441B
:10554000FCF782FA002801D0002010BD0248784400
:1055500010BD0000321400002A14000021F00042A7
:10556000A2F16052B2F5801F01F0004328BFD2F1D2
:105570007F6C0BD95FEA001C43EAC20242EB507019
:1055800018BF704728BF20F001007047B2F5801F98
:10559000BCBF184670474FEA410C1CF5001F02D2F1
:1055A000084600F05ABF70B500F09AFB0000008971
:1055B000FFF7F6BF4FF00040A0F5800070470000F5
:1055C00010B591EA030F48BF83F0004300F1268431
:1055D000841A71EB030C05D2121943EB0C03001B68
:1055E00061EB0C01DFF824E14FEA1154A4EB135CEA
:1055F0001EEA430F18BF9EEA445F73D023EA0E03EE
:10560000DCF1200E21EA045143F4801332D322FA54
:105610000CFE10EB0E0023FA0CFE41EB0E01CCF158
:10562000200E03FA0EFE10EB0E0051F10001B1F551
:10563000801FCCF1200E32D201EB045112FA0EF28F
:10564000BDE8104058BF7047401C38BF5FEA4202B7
:1056500018BF7047002814BF20F0010041F100017D
:105660004FEA410313F5001F38BF7047A1F1C04155
:1056700000F084BB012A43EB0302ACF1200CDCF107
:105680001F0E32BF4FF0000E23FA0CF310EB030095
:1056900041EB0451B4EB115FD0D0A1EB045101F503
:1056A000801149085FEA300001EB04510ED350F13C
:1056B000000038BF12FA0EFE08D1BDE81040C9E75D
:1056C000401C38BF5FEA4202CAD1C3E7BDE81040C0
:1056D0004FEA410313F5001F38BF7047A1F1C041E5
:1056E00000F04CBB9EEA445F08D011EA5E0FBDE8B3
:1056F000104004BF01F0004100207047BDE8104099
:1057000070B500F0EDFA00BF64FBBE3E0000E0FFA4
:1057100002494FF0000000F01FBF00BF0000F87FFB
:10572000491058BFC1F140415B1058BFC3F140431D
:105730008B42EFF3008070472DE9C04130B4DFF8B1
:10574000A0C23CEA111418BF3CEA131400F0EC802C
:1057500081EA03051CEA111444EAD57418BF1CEA57
:10576000131500F0C780A4EB05044FF0004545EA8F
:10577000C12145EAC32341EA505143EA525304F19F
:105780007F74994204F500344FEAC0204FEAC222E8
:1057900008BF904200F09C804FEA13650FF240165C
:1057A000765D4FEA134506FB05F7C7F1807706FBE8
:1057B00007F74FEAD737A7FB03687642C8F580386A
:1057C000A7FB06CE38BFA8F1010807FB08E64FF09B
:1057D000000EA6FB028CE6FB03CEDCF1000CCEF142
:1057E000004E38BFAEF1010EA6FB0C584FF000077B
:1057F0004FF00005E6FB0E87A1FB08C6A0FB07CE15
:1058000016EB0E0645F10005E1FB076515F1E04ECC
:105810007EBFA4F580345FEA46066D4116F180072D
:1058200045F100054FEA17274FEA066647EA056784
:10583000A6F1DE46B6F1805F4FEA15251FD938463E
:1058400024F0010C05EBC471BCF1FE6F01EB0C11EF
:1058500002D8F0BCBDE8008124425CBF01F5801E87
:105860009EEAC47F02D4F0BCBDE80081244238D453
:10587000F0BCA1F1C041BDE8004100F07FBA4FEAA1
:10588000D22242EA43524FEAD323A7FB02864FEAD1
:10589000D02040EA415007FB03661EEA0E0F4FEA94
:1058A000D12105FB026658BFA6EB0056B6EB0056A9
:1058B0004FEA520E4EEAC37E18EB0E0E56EB530E15
:1058C000BDD518EB02085E417F1C55F10005B6E717
:1058D0004FF480154FF000074FF000064FF000081E
:1058E000ADE7F0BC4FF0000001F1C04101F0004114
:1058F000BDE8008111EA0C1F0CEA131500D00CE082
:1059000013EA0C1F00F025804FF00000F0BC81EA84
:10591000030101F00041BDE80081F0BCBDE8004199
:1059200081EA030100F02ABAF0BCBDE8004170B57D
:1059300000F0D6F9097EFC3E00F007B881EA0301C9
:105940004FF0000001F00041704781EA030100F0D0
:1059500015BAF0BCBDE800414FF000002149704786
:10596000FFFDFBF9F7F5F4F2F0EEEDEBE9E8E6E424
:10597000E3E1E0DEDDDBDAD8D7D5D4D3D1D0CFCDAB
:10598000CCCBCAC8C7C6C5C4C2C1C0BFBEBDBCBBE4
:10599000BAB9B8B7B6B5B4B3B2B1B0AFAEADACABDF
:1059A000AAA9A8A8A7A6A5A4A3A3A2A1A09F9F9EB9
:1059B0009D9C9C9B9A99999897979695959493936B
:1059C000929191908F8F8E8E8D8C8C8B8B8A898902
:1059D0008888878786858584848383828281818085
:1059E0000000FF070000F87F51EA030C17D41CF5F4
:1059F000801F58BFBCF5801F00F10680994218BF78
:105A0000704708BF9042704707D711F5801F58BFF5
:105A100013F5801F19D499427047894270471CF5CD
:105A2000801F08D5BCF5801FF7D58B4218BF704783
:105A300008BF824270474FF4001C1CEB410F38BF77
:105A40001CEB430F01D28B42704770B500F048F950
:105A5000922449004FF000514FF08053FFF760BE91
:105A60004FEA41034FEA5353A3F58063D3F11E037A
:105A7000C8BFD3F1210C0CDD4FF0004242EAC12235
:105A800042EA505232FA03FC8CEAE17CACEBE17062
:105A90007047102BC4BF0020704703F5787CBCF121
:105AA000FF3F04D06FF0004282EA2100704770B5DA
:105AB00000F016F94992248000207047F2E710F0B8
:105AC000004248BF4042B0FA80F310FA03F10AD016
:105AD000C3F11D0303F580634FEA415002EB03520B
